:020000040800F2
:1000000088080020FD050008D32A0008E90500083B
:1000100000000000000000000000000000000000E0
:100020000000000000000000000000000D070008B4
:100030000000000000000000C1060008A91500082B
:1000400069080008690800086908000869080008CC
:1000500069080008690800086908000869080008BC
:1000600069080008690800086908000869080008AC
:10007000690800086908000869080008690800089C
:10008000690800086908000869080008690800088C
:10009000690800086908000869080008690800087C
:1000A000690800086908000869080008690800086C
:0800B000690800086908000856
:1000B80002B4714649084900095C49008E4402BCF3
:1000C8007047C046002934D00123002210B488426A
:1000D8002CD301242407A14204D2814202D209016F
:1000E8001B01F8E7E400A14204D2814202D2490090
:1000F8005B00F8E7884201D3401A1A434C08A04233
:1001080002D3001B5C0822438C08A04202D3001BC8
:100118009C082243CC08A04202D3001BDC082243DF
:10012800002803D01B0901D00909E3E7100010BC1F
:10013800704701B5002000F00BF802BD0029F8D087
:1001480003B5FFF7C1FF0EBC4243891A1847C046E2
:100158007047C0461C2101231B04984201D3000CA0
:1001680010391B0A984201D3000A08391B09984222
:1001780001D30009043902A2105C40187047C04638
:100188000403020201010101000000000000000058
:10019800002B11D1002A0FD1002900D1002802D04C
:1001A8000021C943080007B4024802A14018029080
:1001B80003BDC0469DFFFFFF03B4684601B5029822
:1001C80000F04CF8019B9E4602B00CBC7047C0463C
:1001D800D0400B00D1409C46203AD34018435242AD
:1001E80063469340184370479140030090409C46F3
:1001F800203A9340194352426346D340194370470B
:1002080010B5002903D1FFF7A5FF203002E0080050
:10021800FFF7A0FF10BDC046F7B5040C0D0091B262
:100228000F0061438C460600019383B2100C5F43B4
:10023800444358433B0C60441B18994202D980211F
:1002480049026418019955437143180C04191B0499
:10025800BFB24919D819091903B0F0BDF0B50600A5
:100268000F0015001C0085B08B4263D801D1824273
:1002780060D821002800FFF7C3FF39000090300044
:10028800FFF7BEFF009B21001B1A1A0028000393EA
:10029800FFF7AAFF00900191B94245D801D1B042B9
:1002A80042D8009B019C01200021039AF61AA7411D
:1002B800FFF79AFF04000D00039B002B2BD0019B36
:1002C800009ADB0750081843019B5908039B9C467A
:1002D800B9422CD801D1B04229D832003B00121AB9
:1002E8008B41012692185B410027B6185F41012314
:1002F8005B429C446346002BEAD130003900039AE4
:10030800FFF766FF039AA4197D4106000F00FFF767
:100318006BFF241A8D410A9B002B01D01E605F6081
:100328002000290005B0F0BD00240025C4E7B61957
:100338007F41DCE700240025EDE70000F0B5264901
:1003480085B0264802F0A7FB254E300002F08EFE4D
:1003580000283ED0234D280002F088FE002838D01F
:10036800AB68002128001B689847002831DB1E482D
:1003780002F091FBFA240023A4000193B7683C2102
:100388003000FB689847002823DB0F2130003B69C9
:1003980002AA984700281CDB019B002B0ED1029B68
:1003A800012B0BD1002C11D0643C21000F4802F026
:1003B80072FBAB68210028001B689847029B0193D9
:1003C800FA200021800001F0DFFDD7E7FA24A4001D
:1003D800EBE7002005B0F0BD823800088838000837
:1003E8005835000844350008A7380008D5380008F3
:1003F80010B5024B1B68984710BDC046000000208E
:10040800014B18607047C0460000002030B585B029
:1004180004000D0010220021684602F0E2FF6A463F
:1004280002239370044B2A0021006846019302F0CE
:1004380061F805B030BDC046F9030008F7B50400FF
:100448000D001E00019201F0BDFD030002F0D2FF75
:10045800054F32003B5001992800A04702F0CAFF1F
:10046800385800F0DBF8C046080000008021022060
:100478000A4B0905DA6B82B00A43DA63DA6B0A4081
:1004880007490192019A4A68824300204A60DA6B60
:1004980004490A40DA6302B07047C04600100240BF
:1004A80000580140FFFFFFF78022074B92001968B0
:1004B80000200A431A608022196852000A431A6011
:1004C800024B034A1A607047002002402C000020AB
:1004D8000024F40030BFFDE7F7B50A4B0A4D0600CB
:1004E800EF18CC1B2A0020000849019302F070FF86
:1004F80060190021019A02F074FF3800083C746604
:100508000830FEBD04000000000000005C36000852
:10051800074A9368997B7F2908D85269934205D086
:100528008023044A5B0551680B4353607047C046FB
:100538000803002000ED00E070B5224B0C005B685A
:1005480088B0DB05DB0D62B6BFF36F8F0025160E92
:100558002900FF2E09D1F33E1640082E05D00100D0
:100568000135120701D5210000250024032B14D1E1
:100578008B69154A934202D3144A934206D3144A0C
:100588000024934209D3134A934206D2023B1A88A5
:10059800114B00249A4200D10C682022684602F0D0
:1005A80017FF079B002D0AD0DA0502D10B4A134327
:1005B80007936946200002F07AFA08B070BD5B0A1A
:1005C8005B02F5E700ED00E0B80000080834000819
:1005D800000000200000002002DF0000FF010000F2
:1005E800EFF30880EFF3098101B57246FFF7A4FF26
:1005F80001BDC04672B607480749401880F309880C
:10060800EFF314800221084380F31488BFF36F8F3F
:1006180000F0C0F8400300200002000010B50A4BAB
:100628009B6883420DD1EFF30583002B09D080220C
:10063800064B520559680A435A605A6A04490A40E7
:100648005A6202F0D3FD10BD0803002000ED00E05F
:10065800FF7FFFFF0B21084A49429368D9669866D5
:10066800802306495B05486803434B6062B6BFF3C5
:100678006F8F9368D86E70470803002000ED00E084
:10068800EFF3108372B68021084A09055369936015
:10069800074A5160596E074A116000219A6E99669F
:1006A8008A4202D162B6BFF36F8F704708030020F9
:1006B80000ED00E01802002010498A681048104434
:1006C800EFF3098CF0C043464C4655465E466746F4
:1006D800F8C074467046FFF7D3FFA64607498A68F4
:1006E800074C10191030F8C89846A146AA46B346D8
:1006F800BC462438F0C88CF30988704708030020EA
:100708003000000004207146014202D0EFF3098056
:1007180001D1EFF308808169023909780229FFD0F5
:1007280001B502F0CCF901BD43B2000605D41F2281
:100738001A4001239340014A1360704700E100E02A
:1007480030B5FF2503220B00290040B20240D20039
:1007580091409B012B40C943934000280ADBC024E9
:100768000A4A800880008018A40002590A401343EE
:10077800035130BD0F2210400838054A8008800018
:100788008018C26911401943C161F2E700E100E035
:1007980000ED00E0FF22084B10B59343074A936031
:1007A800BFF34F8FBFF36F8F01F00CF901F092FC8C
:1007B80000F03EF801F046F90000000800ED00E006
:1007C80010B5203A1360029B01245360039B06492D
:1007D8009360049BA143D36080235B04D36100230F
:1007E80091610265836610BD4504000870B5094B28
:1007F8000E009860416E084B150019602C1C86F39A
:1008080009880020054B9847201C0021002200235E
:10081800034C20470803002018020020ED2A000896
:10082800450400081022014B1A61704700ED00E0F2
:10083800F0B5C02400220326FF25A40010002F00D5
:100848003040C0008740054993089B005B18195940
:100858000132B94319511E2AF0D1F0BD00E100E080
:1008680010B5EFF30583054A103BDB00D118496842
:1008780098588847FFF74CFE10BDC0466C350008F5
:1008880010B5024B1B689847002010BD1C020020C1
:10089800034B044A1860022391780B439370704706
:1008A8001C02002004000020072310B50449054A53
:1008B80099430548521A02F0B2F8002010BDC0460C
:1008C8008F080020002000202002002070B50500BD
:1008D80000240126287800191F2814DC33008340DF
:1008E8000C4AD16819408B4203D0116919408B42D8
:1008F80009D1D3601361084BC100CA58002A02D03D
:100908005B185968904701346B78E4B2A342E1D28E
:1009180070BDC046001802402C02002000220520AD
:1009280010B50C4C110020706070FFF709FF002211
:1009380006201100A070E070FFF702FF0C220721CB
:10094800054802F04EFD002207201100FFF7F8FECF
:10095800002010BD380000203C00002010B5064BD8
:1009680002001856012393400449CC6F2343CB67F8
:10097800FFF7DAFE10BDC046380000200418024018
:100988001F2805DC012282400249CB6F9343CB67C5
:100998007047C0460418024010B504000800032937
:1009A8000CD80123104AFFF783FB020A0E16A34056
:1009B80011689943116051689943516010BDA34073
:1009C80011681943F6E7A34051681943516011684B
:1009D80099431160F2E7A340116819431160516807
:1009E8000B435360EAE7C0460018024030B5094B94
:1009F800C000C4588C4203D11D186D68954204D0BC
:100A0800002C04D119501B185A60002030BD10204A
:100A18004042FBE72C0200200022034BC000C250DA
:100A28001B185A607047C0462C020020024B1868F9
:100A38004005C00F7047C046001002400B2806D87A
:100A4800044BC3400020DB0700D48638704786205B
:100A58004042FBE7120900000B6813B51A00343A4C
:100A68000C2A0CD8074C48681B191A680243002046
:100A78001A600B681B191B680193019B16BD862021
:100A88004042FBE7001002400B681A00343A0C2A77
:100A980007D80020044A49689B181A688A431A60D4
:100AA800704786204042FBE700100240F8B508680E
:100AB8000C00FFF7C3FF00281EDB6368FF2B1AD06A
:100AC800FF22180007261F270C4910404018590B11
:100AD8001B0A3B40314099400568084B8D4305602F
:100AE80061680A40D2180B0C090A334039408B4020
:100AF8001068034313600020F8BDC0460010024090
:100B0800086810B50300343B0C2B08D8054BC018F7
:100B180003684868984343425841013010BDFFF7C5
:100B28008DFFF8E70010024010B5164B0868140056
:100B38001B68082815D00B280CD8002811D00138BC
:100B48000A280ED8FFF7B4FA1215151C0D15150D45
:100B58000D0D17003C2809D006D8042234389043DC
:100B680004D08620404203E04028FAD100202360C8
:100B780010BD0023FAE700F091F8C3005B08F5E721
:100B8800014BF3E72C0000200024F400F8B53B4D9E
:100B980000F09CF8280001F0B7FF00F025FE1F21A7
:100BA800374C384AA3682E001B051B0F9B009B5827
:100BB8000B40D840136807000B401E41B04202D2D8
:100BC800300000F055FEFFF731FF012808D08023E0
:100BD80022685B0013432360FFF728FF0128FBD13D
:100BE8002368294A134038222360A3681340102B36
:100BF80018D1FFF71BFF012808D0802322685B006B
:100C080013432360FFF712FF0128FBD10722A368D3
:100C18009343A3603823A2681A42FCD1A3681B4AF5
:100C28001340A36023681A4A1340236000F03AF87F
:100C3800802322685B041343236080239B0422687B
:100C48001A42FCD0A368114A1340A3600723A26884
:100C58009A43053B13433822A360A3681340102B23
:100C6800FBD1B74202D3300000F002FE094B0A4A1A
:100C78001D60A36800201340A360F8BD0090D00356
:100C88000010024024380008FFC7FFFFFFF0FFFFF5
:100C9800FFFFFFFE2C000020FF8FFFFF004870477A
:100CA8000024F400064B074AD9681140064A0A4353
:100CB800DA608022D96852050A43DA607047C04674
:100CC800001002408C80FF1F020800208021064B84
:100CD8004905DA6B82B00A43DA63DB6B0B40019398
:100CE800019B02B07047C0460010024010B508488A
:100CF80002F0BCF9002808D0064C2000FFF7C8FD18
:100D08002000FFF77DFB002010BD13204042FBE7C9
:100D180030350008210D000870B50400074D0A2879
:100D280004D1AB680D2128005B689847AB682800A0
:100D38005B68E1B29847200070BDC04630350008B6
:100D480070B5036904005860094D280002F08EF957
:100D5800002809D06168AB6828001B680C319847E7
:100D6800002800DD002070BD13204042FBE7C0468C
:100D78009034000870B51E0080230C0045681100EF
:100D88009B030269994220D1C022E3045203134015
:100D9800A210134303221A402A49183292005258CB
:100DA80007211B0C99400A40DA401300AA689A42AE
:100DB80009D12000FFF7E4FD2000FFF72DFE0021F8
:100DC8002000FFF7E9FD002070BD8023DB03994276
:100DD80033D020001C49FFF709FE002830D18023BA
:100DE800DB049E420AD0C023DB049E4223D080232A
:100DF80002219B049E4202D016201FE00121C0223E
:100E0800E30452031340A21013430322AD681A40AF
:100E180007261B0C9D409E402B000A489200121882
:100E2800106EB043034313662000FFF7B5FD2000A2
:100E3800FFF794FDC7E70321E1E786204042C3E7B7
:100E48001020FBE700180240BD2C0008F7B504008D
:100E58000025C90043180193019B9C4201D1002041
:100E680035E01F27102223681F40134217D1202581
:100E780062681543F8215A0949000A40E239FF39E6
:100E88005B090B40134300931109F02A20D8114B3A
:100E98008900CE58002E0AD11320404217E0102FA7
:100EA80003D0112FE6D16568E4E73025E2E730008A
:100EB80002F0DCF80028EFD00F2300992A0019402F
:100EC80030003B0001F010FF08340028C4DAFEBDF2
:100ED8001620E2E70037000843681B68EFF310812B
:100EE800012282F31088986802439A6081F310887F
:100EF800094A934203D1402259680A435A60EFF3E2
:100F08001081012282F310881868FF3202431A60A8
:100F180081F310887047C0460038014043681B6859
:100F2800EFF31080012181F310889A688A439A6050
:100F380080F31088094A934203D15A683F318A43A3
:100F48005A60EFF31081012282F3108804481A686E
:100F580002401A6081F310887047C046003801408B
:100F6800FFFEFFFF37B50269436810680C001D6873
:100F7800D9688368DB68002B11D001AA984700283C
:100F88000DDB2B68064A13402B60019B002C06D012
:100F980060082100C018FFF795F880B2E86037BDF7
:100FA800FF7FFFFFF7B50C00036941685D6823798F
:100FB800012B13D09A1E5642724192020092667912
:100FC800022E0ED8464F7600F75BA679022E0BD07C
:100FD800042E31D05E1EB3411B0308E0C022D200AC
:100FE800ECE78027BF01F0E75E4273411B07E67913
:100FF80001960026B446019E012E02D1C026B600F5
:10100800B4460968A5421AD10C68364E009A344095
:10101800224313430B604B68334A13403B434B60F6
:10102800436832491A6893680B4061460B439360E2
:101038002968FFF797FFF7BD80235B01D7E7C02238
:101048000E68D2001640009AB24205D00E68284AAF
:101058001640009A16430E60C0264268B601116811
:101068004A683240974204D04A681F4E32403A4399
:101078004A6042681F4E11680A683240934204D0A1
:101088000A681D4E324013430B60C0214368890033
:101098001A6893680B409C4505D0936813490B4028
:1010A80061460B43936080224368D2011B689968AC
:1010B800114206D0019A032A09D09A680F490A40BA
:1010C80004E00199032902D199680A439A602168CA
:1010D8002B689942AFD0FFF745FF23682B60AAE73A
:1010E8007C380008FFE9FFEFFFCFFFFFFFFCFFFFA1
:1010F800FFF9FFFF00100010FFEFFFEFFFBFFFFF3A
:10110800F0B5060047680469564885B0206001F0CC
:10111800ADFF002802D1132040429EE02068F96804
:1011280083681B689847002800DA96E00021386A2F
:1011380003AA01F0EEFD002800DA8EE0039B0022EE
:1011480019791868FFF782FE002800DA85E0012285
:10115800756833692C685B6801932368934323603F
:10116800686801F083FF0028D5D06868A96883689B
:10117800DB68002B00D09847EFF31082012383F33C
:1011880010880C2123680B43236082F310883000F9
:101198000199FFF707FF2B7D002B03D00823A268D6
:1011A8001343A3606B7D002B04D080226368120276
:1011B80013436360AB7D002B04D080226368520226
:1011C80013436360EB7D002B04D080226368920296
:1011D800134363602B7E002B25D0234B9C4205D004
:1011E800224B9C4202D0224B9C4238D173681A6829
:1011F80080239168DB010B43936022686B7E1D4955
:101208005B050A40134323602268AB7E1A491B041E
:101218000A4013432360EB7E002B04D08022A3688E
:1012280012021343A3602B7F002B04D08023226873
:101238009B05134323600123226813432360802303
:101248009B03E2691A42FCD08023DB03E2691A425D
:10125800FCD030007B6A9847002005B0F0BD16200E
:101268005AE7C04690340008003801400044004066
:1012780000800040FFFF1FFCFFFFE0FFF7B5436859
:1012880000901D6803690C005B6801934B790A792B
:101298009C468879012A3CD1022B54D9C02180234D
:1012A8000600C9009B01022800D174E004285CD024
:1012B8000020824204D0033A012A58D980204001F4
:1012C800802700227F01BB425BD162454FD101F0EC
:1012D8006AFDB0424BD1E379002B0AD0012B60D1D3
:1012E800314B9D4205D0314B9D4202D0304B9D423F
:1012F8003DD101262B682100B34300982B60FFF7EE
:1013080051FE00202B681E43019B2E6006CC06C3AD
:10131800FEBD022A09D1022B23D980210600C9006B
:10132800022827D080239B01C0E7022B1BD9060087
:1013380000210228F6D10021002A1BD180201100AB
:1013480040050322C1E7C021C9006646194B760053
:10135800F35A06000228A9D1002A1CD18020400592
:10136800AEE78021F0E70021EFE7002AA6D086202B
:101378004042CDE7033A012AF9D98023002002260A
:101388009B01C0270222BF01BB429ED0013A002B1D
:101398009BD0023299E7033A012AE8D902260020B5
:1013A8008EE7032B9CD0E2E7003801400044004060
:1013B800008000407C38000870B50369C0225B6873
:1013C8000C001B68D2000B608021436805001B6875
:1013D800C9001B68134002228B4204D01C4A9B1888
:1013E8005A425341DAB2C021802022716B688901C8
:1013F8001B6800225B6840010B40834206D0023222
:101408008B4203D0013A002B00D0023262716B6824
:101418001B6818681968C023DB0019400D4B184079
:1014280001F0C1FCC022A0716B6892001B689B6828
:101438001340094A9B185A425341DBB2E3716A6868
:1014480012689268520400D503230020E37170BD2E
:1014580000FAFFFF0010001000FDFFFFF8B5436819
:101468000D001C68C02320682168DB001940124B5E
:101478001600184001F097FC042819D08022E3696F
:101488000020134213D0EFF3108172B60300180046
:101498009E4207DDE769174204D0E85C0133A06289
:1014A800DBB2F4E7002902D162B6BFF36F8FF8BD53
:1014B80086204042FBE7C04600100010F8B543689C
:1014C8000D001C68C02320682168DB0019400E4B02
:1014D8001600184001F067FC042811D000232027CB
:1014E800082118009E420DDDE2693A420AD0626A7C
:1014F800EA54E2690133DBB20A42F2D02162F0E732
:1015080086204042F8BDC0460010001070B5802506
:101518001049114B8C681B680E6810488A686D0268
:10152800002C08D1002A11D11A002E4209D10068D6
:101538001818801A70BD002A0AD02E4201D1A24282
:10154800F5D90468E41804600968F0E71C00F4E7BA
:101558001A00F2E710E000E000030020FC0200207F
:101568000A4A0020136A1B021B0A1362C822084B8E
:1015780052011A60074B084A1860084B5A60072244
:10158800986019680A431A607047C04600ED00E089
:1015980000030020FC020020FF18000010E000E01B
:1015A800F8B50024FFF7B2FF104E23003168104D44
:1015B8000A00286869688018594128606960C8214C
:1015C8000C4D346049012E686F68801BFEF77AFD68
:1015D800C8214901414323000A0092197B412A602E
:1015E8006B6000F04FFEFEF793FFF8BDFC02002091
:1015F8006800002060000020F0B53B4B3B4D87B0F1
:10160800002960D0421C08D101212A688A432A6037
:10161800FF2212061A6007B0F0BD1B68039300236F
:101628000293012854DCEFF31083059372B6FFF799
:101638006DFF00221100AB6804932D4B1E685F6894
:1016480036184F413000390018605960294B009610
:1016580001971A60284B1C68009B1B1B93423EDBBA
:10166800C82702987F017843244A39008018C01897
:10167800FEF728FD009B7843E41A80232018DB003E
:10168800984200D218001E4B984200D91800164BF9
:10169800174918600138AB6868600020A860049A90
:1016A800D41A9A421ED2039D621903000C684D6831
:1016B80012196B410A604B60059B002BABD162B6D7
:1016C800BFF36F8FA7E71B680393431CA7D10D488F
:1016D8000D4B984200DD1800431E0293A3E78020BB
:1016E800C000D4E72200E0E70003002010E000E09B
:1016F80068000020FC02002060000020FF180000A5
:1017080000DCFF003C0A00003D0A000070B5EFF362
:10171800108572B6084A094B14681B68E41AFFF76B
:10172800F5FE0019002D02D162B6BFF36F8FC821F4
:101738004901FEF7C7FC70BD68000020600000206A
:10174800F0B544680500066987B0206801F08EFC92
:10175800002842D0237920680293E38882680769C9
:101768009446DA0728D4B022520313431C4A02993C
:101778001A4005923A68049201228A40039203991A
:10178800049A8A4301210B4202D0039A049B1A430C
:1017980063463A601B68059A02999847002809DB56
:1017A800002230000F4901F05CFD7563A068002835
:1017B80006D1002007B0F0BDD02252035340D5E730
:1017C8000A2200230021FEF727FD02000B000090EB
:1017D8000191300000F04EFEEBE713204042E9E7AC
:1017E800FFFFEFFF812F0008382370B51D4CA2685A
:1017F8001A4205D123681C489B045B0FD84070BD72
:10180800A2681A40082A27D0A2681A40102A17D1BD
:10181800E368E168DB43E5684906490F6F322D0A42
:10182800013115409B0709D11048FEF74BFCE168D0
:101838006843490F0131FEF745FCE0E70A48F4E741
:10184800A2681A40202A09D0A26800201340182B49
:10185800D5D1FA20C001D2E70448D0E780200002A1
:10186800CDE7C046001002400024F40000127A00C0
:101878000F4B411E02000120994217D80D4902233F
:101888008A4203D80C4B93429B415B4207200B4989
:101898000A6882431A430A600A680240934201D0E8
:1018A8000A680240981A421E9041C0B27047C0466A
:1018B800FF8FD003006CDC0200366E01002002406E
:1018C80070B5EFF3108572B6064B9C6801F0DFFB2C
:1018D800002D02D162B6BFF36F8F2000FEF79EFE87
:1018E80070BDC0460803002070B50A4E83009D599C
:1018F800013084003359AB4200D870BD6B68002BAF
:1019080004D0280001F0C6FB0835F3E72B68984798
:10191800FAE7C04664380008012270B5244B03205A
:1019280086B01A70FFF7E0FF00F0DCFD01F0D2FB93
:101938000420FFF7D9FF1F4C26001F4DAC420ED3E1
:1019480000F06CFAAE4220D300F078FAFEF7F6FC0D
:1019580001211A4A137B8B43137306B070BD636A67
:101968000593236A0493E3690393A3690293636964
:10197800019323690093E368A2686168206800F016
:10198800BBF823685C653034D7E7B26AF36A511C48
:1019980001D1591C05D011003068194303D101F059
:1019A800A1FB3036CEE70649183000F0F7FBF8E720
:1019B800380300205C3600085C3600081801002057
:1019C800BF31000810B5034A03480021121A01F07C
:1019D80079FB10BD3C03002060000020C8221100E4
:1019E80070B570260125414304004643104886B06F
:1019F8000918002004950E350395053565430D4BF0
:101A08000590029001900C48F6182D180B4B3000E9
:101A1800009500F071F80422737B2C749343737360
:101A28000134074B6402E418EE606C6006B070BDC8
:101A380040050020A800002008030020DF3000082F
:101A480040030020F0B5002087B0FFF74DFF214B81
:101A580083F308882049214B0A6A00251A40C023CD
:101A68001B0413430B6201F036F8FEF7DBFE02227B
:101A78001B4B1C4EFF329A81B3601D6601F0F5FACC
:101A88000120FFF731FF0220FFF72EFF00F0F0F9E9
:101A9800154C164B7461A02205930123144E154969
:101AA8000493920033002000039502950195009558
:101AB80000F022F804220700637B2000934363733D
:101AC80001F027FB2800FFF789FF320039002000CA
:101AD800FEF78CFE4005002000ED00E0FFFF00FF50
:101AE800880100200803002018010020B7390008E9
:101AF8002119000808060020F0B587B005930300F7
:101B080058338365C365109B072703730423002597
:101B18000732BA434373D2190F9BBA4383738B18A6
:101B28000E0085601900C5738561C56104000493C2
:101B3800FEF7D2FC049BC019B8431F1A0E9B3A004B
:101B480002930D9B310001930C9B20000093059B91
:101B5800FEF736FE044B65659B68AB4200D01B6EF2
:101B68003800236607B0F0BD0803002070B50E4D9D
:101B78000E4BAC699C4201D0002C00D1EC68AB68DC
:101B8800002808D15A7BD20605D1A269002A02D1C1
:101B9800DA897F2A05D89C4202D0200000F048FA52
:101BA80023006B6170BDC04608030020200300209D
:101BB8000D2210B582560400437B002A04DA7F22E6
:101BC8001340437301F092FA034B9868001B434299
:101BD8005841FFF7CBFF10BD080300200D2370B557
:101BE800C356417B002B26DBCB0624D18369002B0F
:101BF80021D1802252420A434273114A114C916901
:101C0800A14200D00B00D169002B04D104604160CF
:101C18000860D0610CE00E250E2645579E57B54248
:101C28000AD0AE4208DD5A6803604260106058600E
:101C38000020FFF79BFF70BD9942E7D01B68E3E7E0
:101C48000803002020030020F8B504000E0010252A
:101C5800002A00D0083D637B2B420FD12B435AB298
:101C6800002A17DB6373082D1BD00120FFF77EFFC6
:101C7800BFF35F8F6022637B93436373244B9B683E
:101C8800A3423FD1EFF30583002B3BD13000FEF791
:101C9800E1FCF8BD7F2213402000637301F026FAAF
:101CA800E1E7A368002B02D0200001F027FA20000A
:101CB8002700183001F0BAFA5837A56DAF4201D0A5
:101CC800002D12D1124DAB689C42CED1EFF30583A3
:101CD800002BCAD00120FFF749FF02220D4BFF322B
:101CE8009A810022AB601A66C2E7280001F006FA62
:101CF8002800183001F09AFA00232800EB66FFF755
:101D08006DFFDAE7002EC4D162B6BFF36F8FC0E76C
:101D180008030020880100200D2270B582560400B7
:101D2800437B002A04DA7F221340437301F0DEF973
:101D38008023627B5B421343134A6373936913489E
:101D4800834200D10023D169002B04D12060616057
:101D58000C60D4610CE00E250E2665579E57B542DF
:101D68000DD0AE420BDD5968236061600C605C6089
:101D78009068001B43425841FFF7F8FE70BD994236
:101D8800E4D01B68E0E7C0460803002020030020D9
:101D980010B500290AD1EFF30580002807D1064BBA
:101DA8009A685B699A4202D0FEF754FC10BD62B68D
:101DB800BFF36F8FFAE7C0460803002010B5EFF3B2
:101DC800108472B60422437B134205D1002C02D141
:101DD80062B6BFF36F8F10BD93434373FFF7FEFEE8
:101DE80021000248FFF7D4FFF5E7C0463903002079
:101DF80010B500280AD1EFF30580002807D1064B5B
:101E08005A699B689A4202D0FEF724FC10BD62B65C
:101E1800BFF36F8FFAE7C04608030020EFF3108185
:101E280072B6054B9A68D37B013BD373002902D164
:101E380062B6BFF36F8F70470803002010B5EFF349
:101E4800108472B6094B00209A68D37B0133D37390
:101E5800FFF78CFE002C02D162B6BFF36F8FEFF351
:101E6800108072B6FFF7C4FF10BDC04608030020FB
:101E7800024B034A9A61DA617047C04608030020A2
:101E880020030020F8B5EFF3108572B67F22194CB5
:101E9800A068437B1340437301F028F98022A368AC
:101EA8005242597B14480A435A73A269824200D1AC
:101EB8000022E169002A04D1186059600B60E361CF
:101EC8000CE00E260E279E57D757BE420DD0B742BC
:101ED8000BDD51681A6059600B6053600120FFF7F1
:101EE80045FE2800FEF7B6FBF8BD8A42E4D012682A
:101EF800E0E7C04608030020200300200300F7B5F0
:101F08000B4304000D00002B03D1FFF7BBFF00209B
:101F1800FEBD4B1C2EDB4B1C01D1831C2AD301F0C8
:101F280098F92718EFF31083019372B6134E144BE8
:101F3800B0681860FFF73CFEB06822002B0011491A
:101F4800183000F02BF91023B2680198517B0B432D
:101F58005373FEF77FFB01F07CF900233A0004007D
:101F68001D00121BAB41AB4202DCD0D1AA42CED03D
:101F78001000CDE702277F423F1BD3E7080300206C
:101F880028030020BF31000810B50B000C00421CCC
:101F980007D1013305D10A4B986801F0C6F8200033
:101FA80010BD2100FFF7AAFF00210200C317092076
:101FB800801859410A220023FEF7EAF8F0E7C046E4
:101FC80008030020014B98687047C04608030020AA
:101FD8000121044B044AC01A044BC0104343D15496
:101FE8007047C046F801002039030020ABAAAAAA0E
:101FF800C289030000207F2A11D80A4A10680028E5
:102008000DD00E21084A595612680020914206DB6D
:102018005A7BD20603D10548181A431E984101235A
:1020280018407047300300202C030020A80000202F
:1020380070B518240C4B05001E7C0C4B7443E41837
:10204800200001F0F3F80022094B28009A55FFF709
:10205800CFFF002807D0074B20001A680649013A2D
:10206800D31700F09BF870BD08030020F80100208A
:102078003903002030030020D91F000870B5EFF3A2
:10208800108572B6104A114B94681868A04207D19F
:10209800FFF7CEFF002D02D162B6BFF36F8F70BD80
:1020A80000211960127C0A4B9B5C8B42F2D0200005
:1020B800FFF79EFF0028EDD0637BDB0602D12000EE
:1020C800FFF72AFE2000E3E708030020280300208A
:1020D8003903002010B50648064A0749121A00F0CD
:1020E800F5FF064A0649074800F0F0FF10BDC04654
:1020F800000000205E000020083A000800000000F0
:10210800083A000800000020002010B5034B1B68A7
:10211800834201D1FFF7FAFA10BDC046340300200C
:1021280030B500280ED00B4B5B6898420AD0016886
:10213800002907D00A694B690469456912196B417E
:102148000A614B610368426813605A6000230360A8
:10215800436030BD3000002070B50E4B1E689E42B3
:1021680003D1FFF7D1FF0C4870BDFFF7CDFF002E5C
:10217800F9D0326973690400C517121BAB41002BF3
:10218800F1DC03D1802109068A42ECD2D843C0177A
:102198001040E9E730000020FFFFFF7FF7B504009B
:1021A80016001F00531C01D17B1C5BD0A160EFF30C
:1021B8001083019372B6002F23DA7B1C01D1B31C64
:1021C8001FD82D4B1868596802225242D317121A89
:1021D8008B41921BBB41002B04DC01D1002A01D1A9
:1021E80001220023254F226163613D68BD4200D171
:1021F80000257E68002D0FD12760666034607C6002
:102208001CE0FFF781FF0122002392197B410600A1
:10221800C71792197B41E5E72869696922696369EB
:10222800994202DC1FD190421DD9801A99416B68EE
:1022380028616961636025601C606C603B68BB4213
:102248000AD09C4208D10E4B1C68002C04D1FFF721
:1022580083FF2100FFF7D0F9019B002B02D162B662
:10226800BFF36F8FF7BD121A8B4122616361B542CC
:10227800C2D02D68BEE7C046100200203000002002
:1022880034030020F0B585B0EFF3108372B60293E3
:10229800304B1860304B1C689C4200D100242F4BF7
:1022A8002C4D0393186859682B689C46002C39D02C
:1022B80062692669DB179A4202DC0AD1664508D9A9
:1022C8001F00226963696646921BBB4122616361F4
:1022D80028E0F31700960193009A019B8018594152
:1022E800002300221D4F226163613860796020005D
:1022F800FFF716FF029B002B02D162B6BFF36F8F68
:102308002000A3689847EFF3108372B60293114B2D
:102318001A68921B1A60104B94461C689C42BED1E6
:10232800386879686246D31712184B41002403991C
:102338002C600A604B60FFF70FFF2100FFF75CF984
:10234800029BA34202D162B6BFF36F8FFFF796FEDE
:1023580005B0F0BD3403002030000020100200203A
:1023680010B5EFF3108472B6FFF7CEFE02000649EF
:10237800C3170868496880185941002C02D162B611
:10238800BFF36F8F10BDC04610020020F7B50400E0
:10239800EFF3108572B603680195002B05D0002D68
:1023A80052D162B6BFF36F8F4EE0826AC36A0021D2
:1023B800012080185941002901D1012829D9002B71
:1023C80004DC01D1002A01D1012200230126764232
:1023D800F717B6185F4100F040FF0122002380186C
:1023E800594180197941002902DC2ED100282CD0CE
:1023F80000F033FF01220023801859410222524283
:10240800D31780197941121A8B4120001849FFF718
:10241800C5FE236B01332363236A002B0BD0002DE9
:1024280002D162B6BFF36F8F2000236A9847EFF39B
:10243800108372B60193A5691834A54201D0002D06
:1024480007D1019B002BACD0F7BD02225242D31713
:10245800DBE7280000F081FE0023EB66019B002BE0
:1024680002D162B6BFF36F8F280000F052FEEBE78F
:1024780095230008F8B5060014001D00EFF3108737
:1024880072B6511C07D1591C05D1002F02D162B672
:10249800BFF36F8FF8BD002B03DA591C0FD1911CC5
:1024A8000DD914001D1E05DC002B01D1002A01D115
:1024B8000124002501225242D317A4185D4130009F
:1024C80000F0B4FE069A079BB262F3620023220072
:1024D800336330002B000249FFF760FED5E7C046A2
:1024E8009523000810B5024800F0D5FA10BDC04683
:1024F800BC390008F0B5436893B00390089383781B
:1025080015009B0700D4F8E0002301930E78002EF5
:102518006AD0252E0DD04B1C0993019B01330193E2
:102528000399089BF0B29847002800DADFE0099980
:10253800ECE74E788B1C0993252EEED0002304215E
:102548001C00099A0293079309921F2C2ED8300079
:10255800203810280AD8FDF7ABFD1D0909270909FD
:10256800091E0909091B0925090918003300303B10
:10257800092B29D92A2E32D108CD600622D4002B66
:1025880029DB20200793044305E001231C4302E0D4
:1025980002231C430C43099B01321E78002ED3D121
:1025A80009922DE00823F1E71023EFE77F2C1ED8CE
:1025B8003300303B092BDDD8600605D50A20029E82
:1025C8007043C3180293E6E70A20079E7043C318B6
:1025D80007932023DAE75B4207932823D6E72E2EBA
:1025E80005D140231C42D1D0019813B0F0BD6C2E08
:1025F8002DD027D8682E31D06A2E32D04C2E30D02C
:10260800029B002B03DA40239C43002302932023E0
:1026180033431A00653A022A01D9612B24D10722D3
:10262800EB1D934308331D00AB4F0292240753D58B
:10263800019A029B16009C18B4424FD1079B029A3C
:102648009E1A82E1742EA6D07A2EA4D0D8E78023D1
:102658001C429BD080208000044397E780235B00C6
:10266800F6E7A0239B0091E730006338122800D9D1
:10267800E3E0FDF71DFD0A46E2E2E2E246E2E2E2BD
:10268800E2E2F3DDE2E211E2AD0004CD0CAB1A7038
:1026980001230CAF0293C9E780CD002F00D18F4FE3
:1026A8000299630601D401214942380000F0FEFD79
:1026B8000290BBE720200399089B9847002816DB67
:1026C800013C029BA342F5D3079A019B94466344BD
:1026D8001B1B01930794ABE7079CF2E7019B039947
:1026E800FB1A985D089B984701360028A4DA039BDB
:1026F8009A7804231343039A937001235B4201934E
:1027080072E723063FD5A30537D50722073595433A
:102718002F000CCF04920593102325009D43059BA1
:10272800002B3ADA0499059A00244B429441049309
:1027380005948023DB001D43ADB20CAC0A2304983A
:102748000599220000F0BDFD041B6B0665D5012329
:102758002A009A431300029AA24200DCA4E0002E49
:1027680000D19CE01022290011400B91154200D0A5
:102778009CE0029A1D0006921EE02F0008CF0493E9
:10278800DB170593C8E72F0008CFE205F7D5A205A8
:1027980001D55BB2F3E71BB2F1E7049B059A13433B
:1027A800CBD16306C9D5029B002BC6D111339C43FC
:1027B800029B25001C0006932A00494B1A400B92E5
:1027C8001D4277D0069B0133069300230B9371E0DB
:1027D80010239C43063B9C46802322001A40069205
:1027E8001C4242D021008133FF3319401C4239D0AA
:1027F8000722EB1D93431F0003CB083703000B434D
:1028080046D1250016339D43630644D5029B002B11
:1028180041D117339C432500029C10232A001A40FB
:102828000B921D4256D0631C002E42D022003FE07E
:10283800102378269C461C43CEE7782B04D110221F
:102848009B1B1A439446C7E725200399089B984782
:10285800002800DA4BE7019B023360E608230026D4
:102868009C46B9E72F0001CFC8E72F00802221003E
:1028780008CF5200180011401442BFD08022210016
:102888009200114098B21442B8D00699D8B2B5E770
:1028980006239C4325000CAC6346220052E7112313
:1028A8009D43029B069387E71D00B6E71D00029A29
:1028B800931C06932B072AD4EB0709D5079B069A86
:1028C8000294934204DD9B1A1B190293079B0693FB
:1028D800069B10E006946FE7FD390008F6390008FA
:1028E8000604000020200399089B9847002800DA76
:1028F800FDE60A9B01330A930A9A079B9342F1DC8F
:10290800069A019B9B1A0A9A9B18019306920B9BA5
:10291800002B25D030200399089B9847002800DA1F
:10292800E5E6019B002E12D101330193019E029B23
:10293800019A9B189B1BA34220DC2500002D25D162
:102948003D00079B069AA4199E1A019431E00233B0
:102958000193F0B20399089B98470028E6DAC6E687
:10296800174B1D42E2D02020AB0700D50B306D0578
:1029780000D52D20019B01330193EBE7302003990B
:10298800089B013698470028D1DAB0E60CAB013D28
:10299800E85C0399089B98470028CFDAA7E6019BD3
:1029A8002020013301930399089B9847002800DAF7
:1029B8009DE6019AA3199B1A002BF0DCB7E5C046E7
:1029C800060400007047C900401840884008704756
:1029D800F8B50D000400FFF7F6FFFDF7BBFB1F215C
:1029E800091A8A00A218EB0010691F1D0633E7199F
:1029F800E318AEB2002808D101308840E1680143ED
:102A0800E16015613E801E80F8BDC1000431625A44
:102A18003A80D200A2181880D6806652F4E70723BD
:102A2800F7B50027043ACC1D89189C4399430B1B22
:102A3800DE080460A660E760300000930191242559
:102A4800FDF788FB20222D1A121A20003900920067
:102A5800103000F0C6FC0123AD000735ED086A0010
:102A68001A436280711BEA00A0184B00278043803C
:102A7800009BA552E218019B578019800123F6009C
:102A8800A61972882900134373802000FFF7A0FF5E
:102A9800F7BD002070470FB407B504A901C901911B
:102AA800FDF7B4FC03B008BC04B01847704710B574
:102AB800012801D1EFF30583FEF702FF10BD10B521
:102AC80001000068FFF7F3FF10BD10B5FDF702FD28
:102AD800FDF71EFD10BD704710B500210120FFF75E
:102AE800E6FF10BD002802D162B6BFF36F8F7047B2
:102AF800BFF34F8F30BF62B6BFF36F8F704710B50B
:102B0800FDF7BEFE002010BD7047436800205B68DB
:102B18001B690B60704743685B6858694240114005
:102B28004140596100207047436800205B68996103
:102B38007047436800205B689962704743680020CB
:102B48005A6853694B405361704710B503699868D8
:102B5800002821D088421BD10868DC689860A1420F
:102B680000D1D86000200860824206D09A680A60C6
:102B7800DA689960002A00D1D960002010E081420B
:102B880006D108682060D8688142EBD1DC60E9E7AB
:102B9800040000680028F2D1002AE7D1162040423C
:102BA80010BDF0B50126302485B00293436830008B
:102BB800144001949409884034408C405D68023682
:102BC80085432C435C609C680327A44604008C4022
:102BD8006643F5430395D5093D4065432F00654697
:102BE800B5432F439F600327520A3A406243DD688A
:102BF800B5432A43DA60019A202A0DD1072915DC4A
:102C080022008A408A400F215143186A884302995A
:102C180051430A0002431A62019A1968120954437F
:102C2800039A11400C431C6005B0F0BD0F21000A47
:102C38004043404341435A6A8A43029941430A4305
:102C48005A62E9E7130070B59A0318D59A070FD5A9
:102C58005A072CD55022DC060CD58024A400224328
:102C680045681C0319D501248C406B689C610EE0F3
:102C78001022F0E79C06F3D58024E400EFE7302229
:102C8800DC0304D5DA060FD49B06DB0F9A024068F2
:102C98000023FFF786FF002070BD5B03F7D50124F2
:102CA8008C406B689C62F2E780229200EFE78620F6
:102CB8004042F1E770B50B008968002905D001256D
:102CC80085405E680C68002900D170BD8B681A00C9
:102CD8002A402B4202D030004B689847231E00D070
:102CE800236821001C00EEE7F8B5050040681F00C6
:102CF8000E001400FFF755FF112F06D101236A6853
:102D0800B3405268240502D593610020F8BD936250
:102D1800FBE730B50368136005790468ED006419B2
:102D2800A34202D30220404230BD5C798C4201D0DC
:102D38000833F0E70020F7E74068CB0300681B0D75
:102D48001B181F2001401E3888401B680340591E6D
:102D58008B410020137070474268CB0312681B0D2B
:102D68009B181F2211401E3A8A40186802431A60B5
:102D78000020704742681F20CB0301401E3888405E
:102D880012681B0D9B181A6882431A60002070474E
:102D980070B50D000400FFF7DFFF29002000FFF7E2
:102DA800E9FF002070BD8022030052010800934211
:102DB80007D080225205934207D14342584101303F
:102DC8007047434258410330FAE7434258410230C2
:102DD800F6E7012210B5436802211B68D869DC694F
:102DE800C0081040144200D00843DC6904220C4299
:102DF80000D01043D969114201D02022104380220B
:102E0800D9695200114202D008211A620843C20748
:102E180001D508221A62820701D501221A624207E7
:102E280001D502221A62820601D504221A6210BD57
:102E380043681A68EFF31081012383F31088106840
:102E48003F330343136081F31088704743681A685F
:102E5800EFF31081012383F3108840201368834324
:102E6800136081F31088704743681A68EFF3108184
:102E7800012383F3108810681F330343136081F321
:102E88001088704743681A68EFF31081012383F3B1
:102E98001088202013688343136081F310887047DB
:102EA80043681B68D8698006C00F704701207047C7
:102EB80003699960DA60704710B502699368002B5E
:102EC80001D0D168984710BD002210B511001C2010
:102ED800FDF736FC1C20FDF727FC10BD43681B6876
:102EE800D8694006C00F7047436800201B68DA693C
:102EF800120602D518684006C00F7047802210B528
:102F080043681B68D8691042FCD0EFF3108072B692
:102F1800DC69144205D10028F4D162B6BFF36F8F83
:102F2800F0E79962002800D010BD62B6BFF36F8F3A
:102F3800FAE7202243681B68D969114203D019684F
:102F48000120114206D1DA690020520602D518681C
:102F58004006C00F7047082243681B68D8691042B2
:102F680000D01A62DA69920603D500205B6A0B70FA
:102F7800704701204042FBE710B50121436B5B68B5
:102F880018681B79994083685B69984710BD0300EE
:102F980037B5081E5D681C6911D1200000F06DF975
:102FA80001212B792868994003691B680B4203D1DA
:102FB80083681B6998473EBD8368DB68FAE70A2285
:102FC80000230021FDF728F902000B000090019171
:102FD8002000FFF74FFA0020EDE773B54368046956
:102FE80018681D790669836801A95B6898470028F5
:102FF80007D10130A840019B326853401840431E56
:1030080098412060002076BD03690F2903D1002074
:103018001B681360704786204042FBE7F7B5446899
:10302800206800F023F800281CD08023E7885B0282
:103038003B432179206801930126350083688D4040
:103048009C4603691C682200AA43374201D02A0023
:1030580022431A606346019A1B689847002800DDDE
:103068000020FEBD13204042FBE77047002809D02E
:103078000123C26800205178194202D010784242D8
:10308800504118407047EFF3108372B6FEE710B551
:10309800FFF7F9FF10B518C8002B06D1002001234F
:1030A800E26851780B43537010BD20009847002800
:1030B800F4D0C317C0185840FF2800DDFF20E3688C
:1030C8001870ECE710B500F08CF910BD10B500F0E1
:1030D8007FF910BD704710B5EFF3108372B6FFF794
:1030E80007FDF9E710B5FEF769FE10BD03684268F1
:1030F80013605A60002303604360704710B50400F2
:10310800FFF7F4FF0222637B934363730023A360FA
:1031180010BD10B5EFF3108472B6FEF75FFD002CFA
:1031280002D162B6BFF36F8F10BD10B5040018301E
:1031380000F07CF8EFF3108172B6607B1023020078
:103148001A40184205D0002902D162B6BFF36F8F2A
:1031580010BD2000FEF778FDFAE710B5EFF31084F4
:1031680072B68368002B01D0FFF7C8FF002C02D18C
:1031780062B6BFF36F8F10BD70B504000E00EFF399
:10318800108572B62823427B1A420ED18368002B21
:1031980001D0FFF7B3FF0422637B002E00D0142276
:1031A800934320006373FEF719FD002D02D162B628
:1031B800BFF36F8F70BD10B501211838FFF7DCFF22
:1031C80010BD70B5EFF3108572B60468A0420BD03D
:1031D800002C02D02000FFF791FF002D02D162B62B
:1031E800BFF36F8F200070BD0024F6E710B5EFF332
:1031F800108172B60122037B13420BD0002902D141
:1032080062B6BFF36F8F62B6BFF36F8F0423181CCB
:1032180002DF10BD437B1B0705D50029F9D162B633
:10322800BFF36F8FF5E7FEF70FFDF2E710B5EFF389
:10323800108472B60368002B08D0FEF771FF0020D7
:10324800002C02D162B6BFF36F8F10BD162040422A
:10325800F6E710B5FFF784F810BD10B5FFF780F852
:1032680010BD4262020000231832016203638261CA
:10327800C261036043604363704710B50400FFF701
:10328800D5FF002811D1636A002B01D02000984790
:1032980020001830FFF795FF002806D0FFF739FF08
:1032A800EFF3108072B6FEF7A3FD10BD03004118BE
:1032B8008B4202D01A78002A01D1181A70470133BC
:1032C800F6E7F0B50D003721C91A8FB0C9B20D91D4
:1032D8001F2104000B400C930C99E3B2082955D028
:1032E800102900D164E0E9076008084369080690DE
:1032F8000791A008A9070843A90808900991089E02
:10330800099F06980799801979410E07B44606095E
:1033180000966646009F37430E0900970196009E67
:10332800019F801979410E06B4466746060A3E4356
:1033380002960E0A0396029E039F801979410E0495
:10334800B4466746060C3E4304960E0C0596049E4A
:10335800059F8019794100260A910B960A9E0B9FBA
:10336800801979414E07CD080521C40834436143CB
:1033780049005B1ADBB2092B12D9012000210A3B54
:1033880024184D41DBB21DE00200A5E707210B40E0
:1033980069078C466646E008E908064334000D00D4
:1033A800303313702300501C2B43EDD10FB0F0BD08
:1033B8000F210B4029078C46664620092909064338
:1033C80034000D00092BEBD90D99CB18DBB2E7E7D8
:1033D800002310B59A4200D110BDCC5CC45401330F
:1033E800F8E703008218934200D17047197001333F
:1033F800F9E7000001480068704700001802002043
:083408005CCEFF7F0100000013
:10341000B104000800000000950B0008903400087B
:10342000750400080000000000000000A43400083B
:10343000490D0008F434000825090008B8340008D4
:10344000490D00081C350008490D00080835000822
:10345000490D0008E0340008490D0008CC3400088C
:103460000911000830350008F50C000800000000C4
:103470006915000800000000B10800080000000005
:103480004917000844350008253000085835000861
:103490002A390008000000005C3600084A000020BD
:1034A000000000007D39000840370008443700085C
:1034B00056000020000000000C3900080000000049
:1034C00000000000480000202C02002037390008CE
:1034D00078360008DC3600084C000020AC020020E2
:1034E000453900088C360008DC3600084E00002004
:1034F000BC02002053390008A0360008DC36000862
:1035000050000020CC02002061390008B4360008C9
:10351000DC36000852000020DC0200206F39000871
:10352000C8360008DC36000854000020EC020020F9
:103530008E39000854370008A437000858000020CE
:10354000140000209E390008F0370008FC370008FE
:103550005A00002070000020A83900080038000838
:0C356000083800085C0000200403002074
:10356C0000000000E12A000800000000E12A000829
:10357C0000000000E12A000800000000E12A000819
:10358C0000000000E12A00080A390008D5080008EC
:10359C0008390008D508000806390008D5080008C5
:1035AC0000000000E12A000800000000E12A0008E9
:1035BC0000000000E12A000800000000E12A0008D9
:1035CC0000000000E12A000800000000E12A0008C9
:1035DC0000000000E12A000800000000E12A0008B9
:1035EC0000000000E12A000800000000E12A0008A9
:1035FC0000000000E12A000800000000E12A000899
:10360C0000000000E12A000800000000E12A000888
:10361C0000000000E12A000800000000E12A000878
:10362C0000000000E12A000800000000E12A000868
:10363C0000000000E12A000800000000E12A000858
:10364C0030350008C12E000800000000E12A0008F7
:10365C00610A0008910A000800000000310B000804
:10366C00090B000800000000B50A0008FFFF00006D
:10367C000014005005000000340000002000000081
:10368C00FFFF0000000C005003000000340000009D
:10369C0008000000FFFF00000008005002000000BE
:1036AC003400000004000000FFFF00000004005084
:1036BC00010000003400000002000000FFFF0000C9
:1036CC000000005000000000340000000100000069
:1036DC004D2C0008132B00081F2B0008312B000861
:1036EC003B2B0008452B00087D0D0008532B0008D0
:1036FC00000000001C35000808350008F4340008F0
:10370C00E034000800000000CC3400080000000089
:10371C00000000000000000000000000000000009D
:10372C00000000000000000000000000000000008D
:10373C000000000000100240412D0008612D00081F
:10374C007D2D0008992D000800440040A434000889
:10375C00910500007C37000801000000000000000B
:10376C00000000000000000084370008D12E000883
:10377C003C000000000002008C3700080100000033
:10378C009437000802000000410000000002000015
:10379C0061000000000000005F2F0008052F0008EA
:1037AC00DB2D000885120008C11300086514000801
:1037BC00C5140008392E0008552E0008F12E0008FB
:1037CC00712E00088D2E0008E52E0008A92E000889
:1037DC00E10E0008250F00083B2F0008B52E00084D
:1037EC00B92E0008F434000806000000E8030000BD
:1037FC00972F0008F43400080D00110000000000A1
:10380C000000000000000000E32F00081130000849
:10381C00000000000000000000000000000000009C
:10382C00000000000000000000000000000000008C
:10383C000000000000000000010000000200000079
:10384C000300000004000000060000000700000058
:10385C0008000000090000001034000810340008B3
:10386C007034000878340008903400089034000854
:10387C00001000000030312E302E30005A65706878
:10388C007972204578616D706C65204170706C693F
:10389C00636174696F6E2025730A0055736520741B
:1038AC0068652073656E736F7220746F2063686136
:1038BC006E6765204C454420626C696E6B696E675F
:1038CC0020706572696F640A0050726F78696D6957
:1038DC0074792064657465637465642C20736574F5
:1038EC0074696E67204C454420706572696F642062
:1038FC00746F202575206D730A00040C02020002FF
:10390C00696E746572727570742D636F6E74726FFC
:10391C006C6C657240343030323138303000726348
:10392C0063403430303231303030006770696F4072
:10393C003530303031343030006770696F4035309D
:10394C00303030633030006770696F403530303064
:10395C0030383030006770696F403530303030347B
:10396C003030006770696F40353030303030303077
:10397C000072657365742D636F6E74726F6C6C6519
:10398C00720073657269616C40343030303434309D
:10399C003000626C696E6B2D6C6564006578616DCE
:1039AC00706C652D73656E736F72006D61696E005E
:1039BC002A2A2A20426F6F74696E67205A657068D4
:1039CC007972204F53206275696C642076332E37E0
:1039DC002E302D3232372D67336263616136663893
:1039EC0064363331202A2A2A0A00286E756C6C2919
:0C39FC00002A666C6F61742A0000000055
:103A08009B2A000800000000072B000800000000A7
:103A1800000000000000000024000020000000005A
:103A28000000000000C20100000103000024F400AF
:103A38003000002030000020FFFFFFFFFFFFFFFFE6
:083A4800FFFFFFFFFFFFFFFF7E
:103A50000000000000000000000000000000000066
:063A600000000000000060
:043A660015E015E072
:04000005080005FDED
:00000001FF
